:0200000460009A
:100000004643464200000156000000000103030081
:1000100000000000000000000000000000000000E0
:1000200000000000000000000000000000000000D0
:1000300000000000000000000000000000000000C0
:1000400000000000010408000000000000000000A3
:100050000000800000000000000000000000000020
:100060000000000000000000000000000000000090
:100070000000000000000000000000000000000080
:10008000EB04180A063204260000000000000000FD
:10009000050404240000000000000000000000002F
:1000A0000000000000000000000000000000000050
:1000B0000604000000000000000000000000000036
:1000C0000000000000000000000000000000000030
:1000D00020041808000000000000000000000000DC
:1000E0000000000000000000000000000000000010
:1000F0000000000000000000000000000000000000
:10010000D8041808000000000000000000000000F3
:100110000204180804200000000000000000000095
:1001200000000000000000000000000000000000CF
:10013000600400000000000000000000000000005B
:1001400000000000000000000000000000000000AF
:10015000000000000000000000000000000000009F
:10016000000000000000000000000000000000008F
:10017000000000000000000000000000000000007F
:10018000000000000000000000000000000000006F
:10019000000000000000000000000000000000005F
:1001A000000000000000000000000000000000004F
:1001B000000000000000000000000000000000003F
:1001C000000100000010000001000000000000001D
:1001D000000001000000000000000000000000001E
:1001E000000000000000000000000000000000000F
:1001F00000000000000000000000000000000000FF
:10020000FFFFFFFFFFFFFFFFFFFFFFFFFFFFFFFFFE
:10021000FFFFFFFFFFFFFFFFFFFFFFFFFFFFFFFFEE
:10100000D100204325160060000000000000000011
:10101000201000600010006000A8006000000000C8
:101020000000006000B4000000000000FFFFFFFFB0
:10103000FFFFFFFFFFFFFFFFFFFFFFFFFFFFFFFFC0
:10104000FFFFFFFFFFFFFFFFFFFFFFFFFFFFFFFFB0
:10105000FFFFFFFFFFFFFFFFFFFFFFFFFFFFFFFFA0
:10106000FFFFFFFFFFFFFFFFFFFFFFFFFFFFFFFF90
:10140000884207D0904205D251F8043B40F8043B93
:101410008242F9D8704700BF884204D2002340F8C6
:10142000043B8142FBD870472DE9884800F012F94F
:101430000824614B614AC3F8544161496148FFF790
:10144000DFFF614A61496248FFF7DAFF614962489C
:10145000FFF7E2FF614C4FF0E0214FF470000023F2
:101460005F4AC1F8880D44F823200133B02BFAD12C
:101470005C4B80215C4A03F8011B9342FBD14FF087
:10148000E0254D4E4FF08039DFF88CB1DFF88CA1AC
:101490004FF0FF31C5F8084D0027C6F80491C6F893
:1014A00000B1C6F8F490C6F8F0A0D5F8243DDFF8F6
:1014B000708143F4E0234D4AC5F8243DD8F81C3030
:1014C00023F07F0343F04003C8F81C30D8F82430E1
:1014D00023F07F0343F04003C8F824309166D166BF
:1014E0001167516700F0BEF8414B4249A363424B7C
:1014F000E36363236B610323AF612B613F4BC5F84B
:10150000203DD5F8FC3D43F08073C5F8FC3D3C4BD5
:101510001A6842F001021A605B680B6000F0E0FAA2
:10152000C6F804913748C6F800B1C6F8F490C6F87A
:10153000F0A000F085FCD8F86C10334B334A41F42E
:101540004051C8F86C101F60C3F80871C3F81871D7
:10155000C3F82871C3F83871936BDB0708D442F6DF
:1015600015632B4951651365936B43F00103936336
:10157000264A284C936843F00113936000F0EEF87C
:1015800000F0DCFA00F04CFC00F002FB00F064F824
:101590002368132BFCD900F093FB2368B3F5967FE7
:1015A000FBD300F05DF800F059F800F035FC00F0D6
:1015B0002BFC30BFFDE700BF00800D4090730000A2
:1015C000841F006000000000C0120020189300601B
:1015D00000000020A0250020C012002000100020E4
:1015E000D93E000000E400E0A0E400E000C00A40B2
:1015F000056C0000C41F0020096C000000002020C2
:10160000001000E00046C3230040084000400D40A9
:101610000000C056C81F00201B1018200C0D11130D
:1016200000C00F40074B4FF42A01074A07485A648D
:101630001864074A99639546BFF34F8FBFF36F8FC6
:10164000FFF7F2FE00C00A40ABAAAAAA07002000DA
:1016500000800720704700BF704700BF704700BF81
:1016600000BF704710B44FF0E023002110242B4836
:10167000C3F8941DC3F89C4D1124C3F8A00D28484D
:10168000C3F89C4D1224C3F8A00D2648C3F89C4D06
:10169000254AC3F8A00D254C42F015022448C3F892
:1016A0009C4DC3F8A00D234C2348C3F89C4DC3F8B0
:1016B000A00D224CC3F89C2D2148224AC3F8A04D0E
:1016C000C3F89C0DC3F8A02D02F5A0221E4C0C32CD
:1016D0001E48C3F89C4DC3F8A02D1D4AC3F89C0DAD
:1016E0001C4CC3F8A02D01221B48C3F89C4DC3F825
:1016F000A00DC3F8942DBFF34F8FBFF36F8FC3F8C6
:10170000501FBFF34F8FBFF36F8FD3F8142D5DF8C9
:10171000044B42F44032C3F8142D70473F000010D0
:101720002500080309001000A02500201300200058
:1017300021000207140000202500081309000010F2
:101740001600202027000B1317000040180000602F
:101750002F000B07190000702F000B13F0B5B84BCA
:101760001822B84E0120B84F83B0C3F85C62B74965
:10177000C3F86072B64DC3F86462A6F53046B54C46
:10178000C3F86862C3F86C52C3F87052C3F874525D
:10179000C3F8785248F20C75DA661A675A679A6786
:1017A000DA67C3F88020C3F88420C3F88820C1F822
:1017B0002C03A94AC1F83003C1F83403C1F8380337
:1017C000C1F83C03C1F85003A169A44B0A40A448E6
:1017D000A4491343A44AA361D4F8843043F00C0312
:1017E000C4F884304FF0FF34036843F00203036011
:1017F00003682B404FF400551A439C4B0260446031
:101800008A689B4C13409B4A43F000538360C36833
:1018100023F07803C360036A134023430362036A1F
:101820001340954A2343954C43628262C262002270
:10183000D1F8B83023F03F0343F00103C0F8B830CB
:10184000D1F8BC308E4923F03F0343F00103C0F8C8
:10185000BC3040F20563026105660467C0F8803061
:10186000456644670224C0F88430036823F002030D
:1018700003608161834B8449C46143F8042B8B422C
:10188000FBD1774A136843F001031360136813F028
:101890000103FBD17A48022140F2F564906140F2E5
:1018A0009940D16140F26641C2F8004242F20144DF
:1018B000C2F810127549C2F82002C2F8301240F284
:1018C00035417348C2F83442C2F84012714CC2F834
:1018D000500242F201207049C2F854120121C2F8AC
:1018E0006042C2F864025E48C2F8A030C2F8A43078
:1018F000C2F8B0104369DA07FCD5012300244FF485
:10190000803257494361C0F8A040C0F8A420C0F815
:10191000B0304B69DB07FCD5012300244FF40030C5
:101920004F4A4B61C1F8A040C1F8A400C1F8B030E3
:101930005369DF07FCD50123002458484849536107
:10194000C2F8A040C2F8A400C2F8B0304B69DE076C
:10195000FCD5D1F8003145F60D5221209BB24861EB
:10196000934265D100244FF4802201233C48C1F802
:10197000A040C1F8A420C1F8B0304369DD07FCD510
:1019800001234FF400040021354A4361C0F8A04010
:10199000C0F8A410C0F8B0305369DC07FCD50123AF
:1019A0004FF400044FF480302D495361C2F8A04039
:1019B000C2F8A400C2F8B0304B69D807FCD50123A7
:1019C0004FF400044FF40030254A4B61C1F8A040A9
:1019D000C1F8A400C1F8B0305369D907FCD5012380
:1019E0004FF400042D481E495361C2F8A040C2F8CC
:1019F000A400C2F8B0304B69DA07FCD5D1F8003149
:101A000045F60D5221209BB24861934250D00825E3
:101A10004FF4000422490020224B234A0090157005
:101A20005A1A01232148224400F0FEF903B0F0BD08
:101A30001E4B0022C3E90022C3E9022203B0F0BD1D
:101A400000801F40F9B00100F910010000841F4020
:101A5000F970010000C00F40FFFCFF1F000300A051
:101A600000402A4000802A401200FFFFFF37F700A5
:101A70004000008000FFF07CFF000F836300020045
:101A8000F05AF05A00422A4000432A409F0418307E
:101A9000EB06180A3806180A06320126040003006D
:101AA000000000700000007056250020D41E0020A9
:101AB0004FF400044FF4802201230848C1F8A040ED
:101AC000C1F8A420C1F8B0304369DB07FCD501237D
:101AD00010254FF0807443619CE700BF00402A400E
:101AE000F0B4154A40274FF480314FF480564FF43C
:101AF00000554FF4404443F24200136913F0020FC3
:101B00000ED113F4005F0FD013F4805F0ED0002BC2
:101B1000F3DA13F4803F0BD15B060BD5F0BC7047B2
:101B2000946151619061E8E75561E6E75661E4E749
:101B30009161E2E75761E0E700800D40104BA02083
:101B4000104AD96E41F4403110B4D96640F237647E
:101B5000D96E41F44071D96654649064936C1B064D
:101B6000FCD4094A40F23761A02351649364936C1A
:101B700013F08003FBD1054A13705DF8044B7047E6
:101B800000C00F4000400C4000800C405525002054
:101B90003F4A03203F49F3EE095AD2F880304FF014
:101BA000000C9FED3D6A23F001039FED3C5A30B4D9
:101BB000C2F88030C2F89000D1F8E010384DCBB2B6
:101BC000384C39482B6007EE903A0B0DC1F30B21CE
:101BD000F8EEE77A06EE903A07EE101A334BB8EEBD
:101BE000C77A2160F8EEE66A314937EEC66A37EE09
:101BF000C55A76EEC76A77EEE57A26EE266AC3ED19
:101C0000006A25EE265AD2F8803067EEA64AC0ED6B
:101C1000007AC6EE275A274885EE276AC4EEA76ADF
:101C200075EE875AFCEEE55A36EE076A15EE904AD5
:101C3000BCEEC66A43EA045376EE877AC2F8803077
:101C400016EE103AD2F89041FCEEE77A01EA034131
:101C5000214317EE903AC2F89011C3F30B03D2F868
:101C600090110B431449C2F89031D2F8803043F000
:101C70000203C2F88030114B80F840C0C1F84031F7
:101C80004FF0E023012230BCC3F80821704700BFA9
:101C900000810D4000441F400000AA420000B442F1
:101CA000881F0020841F00208C1F0020901F002010
:101CB0000000FF0F00E400E0001000200D510000C4
:101CC000314B40F6617210B5C3F8202140F2044454
:101CD00000F0B2F82D4A2E49D2F880302D4843F05A
:101CE0000303C2F880302C4BC1F8604102681A42ED
:101CF00003D1D1F8A8319A071BD0254A4FF00041F3
:101D0000244B5963D2F8403143F00203C2F840310A
:101D1000D2F840319B07FBD44FF400304FF0E02164
:101D20001C4B4FF00042C1F88C0219209A6300F05E
:101D30007FF8184A4FF08040154C002190630A202C
:101D4000164B11604FF42072C4F8A801184600F039
:101D50005FF84FF4800203464FF4810040F24311D4
:101D60001860C4F858311A640D4B0E4AC4F8481173
:101D7000C3F804224FF0E0224FF400310123C2F8EF
:101D80000C11C4F8403110BD00800D4000C00F4060
:101D900000002E4000900D40001C1E00000000209E
:101DA00000100020F552000008B50E4B1B6E9B077B
:101DB00000D4FBBE72B60C4B00200C4AC3F84001A5
:101DC00003F160430A49A3F55F2311649D46BFF305
:101DD0004F8F4FF400130748074ADB6902609B6886
:101DE000984700BF00441F4000002E4000C00A403A
:101DF0000300200000802020000012EBF8B500BF97
:101E0000F8BC08BC9E4670475FF800F071440000C3
:101E10005FF800F07D7200005FF800F02D730000A5
:101E20005FF800F0254F00005FF800F089500000D7
:101E30005FF800F0AD4D00005FF800F0655A00005B
:101E40005FF800F0BD4A000045000000B149000005
:101E50002D670000AD67000031680000B568000024
:101E600039690000BD690000416A0000C56A0000D0
:101E70001603550053004200200053006500720015
:101E8000690061006C0000001803540065006500E3
:101E90006E00730079006400750069006E006F00C9
:101EA0000403090409026200030100C032080B00A8
:101EB00002020201000904000001020201000524DF
:101EC0000010010524010101042402060524060076
:101ED000010705820310001009040100020A000036
:101EE00000070503024000000705840240000009C6
:101EF00004020002FF6AFF0007058102400001079B
:101F0000050102400001000009026200030100C057
:101F100032080B0002020201000904000001020263
:101F2000010005240010010524010101042402061A
:101F300005240600010705820310000509040100BD
:101F4000020A0000000705030200020007058402E0
:101F50000002000904020002FF6AC70007058102AF
:101F60000002010705010200020100000A0600024A
:101F7000EF02014001000000000101010101010127
:041F8000010000005C
:101F8400000000000000000000000000000000004D
:101F9400000000000000000000000000000000003D
:101FA4000548064B1B1AD90F01EBA301491002D0B7
:101FB400034B03B118477047C0120020C012002021
:101FC4000000000008B5054B1BB105490548AFF3F7
:101FD4000080BDE80840FFF7E3BF00BF0000000039
:101FE400001F002000B4006010B50446012104F075
:101FF400EDFC01212046BDE8104004F0BDBC00BF4B
:10200400014804F07BBB00BF041600202DE9F04713
:102014009DF8204008B1BDE8F087994F9A4689465B
:102024001646FB7C002B39D072B6FA7CD10708D552
:102034004FF0E0207B69D0F880110B40C0F880316C
:10204400BB62930708D54FF0E020BB69D0F8841138
:102054000B40C0F88431FB62500708D54FF0E020F4
:10206400FB69D0F888110B40C0F888313B63110735
:1020740008D54FF0E0203B6AD0F88C110B40C0F833
:102084008C317B63D30608D54FF0E0217A6AD1F80E
:1020940090311340C1F89031BB6362B67949BB6893
:1020A4008B4275D0784BB9609B69784AC3F3011CA5
:1020B400C3F38263764852F82C200133B2FBF3F366
:1020C400834257D80022FA603B680021032019613B
:1020D400586248461A646F4A1A6601221A6104F06B
:1020E4004BFC022C00F08B80032C53D0012C00F00D
:1020F400A780BAF1000F10D0099B591E06EB0A0302
:102104003A6816F8010B5066D46D14F4F81FFBD02E
:10211400526F9E4201F8012FF2D10121484604F08A
:102124002BFCFB7C002B3FF476AFDC0704D5B96AAB
:102134004FF0E022C2F80011980704D5F96A4FF075
:10214400E022C2F80411590704D5396B4FF0E0229C
:10215400C2F808111A0704D5796B4FF0E022C2F8CF
:102164000C11DB067FF557AFBA6B4FF0E023C3F8D1
:10217400102150E7484AA2FB0302920CB3FBF2F38E
:102184008B4288BF0132B2F5817F6FD3434A9AE70D
:10219400FA6899E7BAF1000FBFD0099B191F06EB43
:1021A4008A0356F8042B3C68D0B26066E56D15F4DA
:1021B400F81FFBD0606F60F30708C2F30720606666
:1021C400E56D15F4F81FFBD0606F60F30F28C2F3C0
:1021D40007406066E56D15F4F81FFBD0606F120EC2
:1021E40060F317486266E56D15F4F81FFBD0626F63
:1021F4009E4262F31F6841F8048FD2D18DE7BAF191
:10220400000F8AD0099A06EB4A033C68901E36F800
:10221400021BCAB26266E26D12F4F81FFBD0626F51
:10222400090A62F307056166E26D12F4F81FFBD038
:10223400626F9E4262F30F2520F8025FE7D16CE7DC
:10224400BAF1000F3FF469AF099B581E06EB0A036D
:10225400396816F8012B4A66CA6D12F4F81FFBD0D0
:102264004A6F9E4200F8012FF2D156E7022A7FF608
:1022740029AF931E59080A0442EA01221A4322E7AD
:102284000416002040420F0000C00F4070040020DC
:102294003F420F000700008083DE1B43FF7F7F0067
:1022A40000207047002934D0002832D01A4AB8EEF2
:1022B400007B92ED006B38B5B4EE476BF1EE10FA8B
:1022C40022D0D2E90045C1E90045436813491C689E
:1022D400134D144892ED007B0C60D968D3E90124B6
:1022E400114B2A60114A0460116000221A6000F048
:1022F400A3FF0F4B0F4AC3E9002200F0FBFE10B905
:102304000D4B01221A7038BDD1E90045C2E90045E0
:10231400DBE74FF0FF307047000C00202025002041
:102324002425002028250020302500202C250020ED
:102334000820002011130000722500202DE9F04F21
:102344002D4E0223DFF8B8A083B096F8009005461E
:102354008AF800305FFA89F3019308B933787BB3C4
:10236400337803F0FF0B002B3AD1244F002442F2C0
:1023740010780FE0BBF1000F37D104F0D7FCA54271
:1023840048462CBF4FF0000B4FF0010B00F0D2FE7B
:10239400337833B93B780A20444403F0FF09002B17
:1023A400E8D0BBF1000F4FF003030CBF00206FF027
:1023B40063008AF80030019B5BB103B0BDE8F08F85
:1023C4000E4F3B78002BCBD1337873B94FF0010B10
:1023D400CCE7019001F0DCF9019803B0BDE8F08F7F
:1023E400032300208AF80030E5E703236FF063003D
:1023F4008AF80030DFE700BF712500207325002034
:1024040072250020B5EEC00BF1EE10FA3CD4FF2883
:1024140030B5044683B034D81D4B1A78032A0DD046
:102424001A78012A0AD0012C0CD9204600F05EFE4D
:10243400204603B0BDE8304001F080BB0422012CEB
:102444001A70F2D8134D55F82430002BEDD08DEDD1
:10245400000B01F087FB02289DED000BE5D155F838
:10246400243020469847054620469DED000B00F099
:102474003DFE002DDCD1204601F090FB284603B040
:1024840030BD4FF0FF30FAE74FF0FF30704700BF28
:102494007225002008200020002000F04BBE00BF61
:1024A40070B50623064E0025337000F073FE054B0D
:1024B4000446C3E9005501F009F92046357070BDA2
:1024C4007225002008200020014B1878704700BFB7
:1024D40073250020014B1878704700BF6E2500203B
:1024E4002DE9F0412DED028B84B00646B0EE408B11
:1024F4000F4603A806F03CFCDDF80C80B8F1000F91
:102504003ADD08F1FF34651124F01F04681C87428A
:102514000ADD3A1A002106EB800092008DED000BD3
:1025240006F06CFE9DED000BB5EEC08BF1EE10FADB
:1025340016D527E0A8EB0400A04606F055FCAF42F0
:10254400BBFE407BA4F1200330EE470B05DDBCEE5F
:10255400C77B17EE102A46F825200394013D1C463C
:102564006B1CE7D1B5EEC08BF1EE10FA0ED404B0BB
:10257400BDEC028BBDE8F0816FF01F0400204FF02A
:10258400FF35C4E76A1CB1EE400BD3D1002FEEDD5A
:10259400301F012300EB870750F8042F9B1AD24306
:1025A400013B9A42036094BF002301238742F3D185
:1025B40004B0BDEC028BBDE8F08100BF034B93F87F
:1025C4003D30B3FA83F35B094370704778150020FC
:1025D4009FED137BB0EEC06BB4EEC76BF1EE10FA57
:1025E40016D5B6EE007BB4EEC70BF1EE10FA04DBA1
:1025F40030EE070BBBFE400B7047BEEE006BB4EE33
:10260400C60BF1EE10FA04DC30EE470BBAFE400BB9
:1026140070479FED057B20EE070B7047AFF30080FA
:102624000000000000003043000000000000000033
:102634002DE9F041D24FD34D97F83D30D24EB3FA45
:1026440083F20133DBB25209022B87F83E2028BF04
:10265400002395F8612087F83D30013A95F8603001
:10266400012A03F1FF338CBF00220322012B85F8DA
:1026740061208CBF0023032385F86030EB6D06EEE8
:10268400903A96ED1C7BB8EEE66B2DED048BB4EE20
:10269400476B8EB0F1EE10FA02D5002B80F2458123
:1026A4009FEDA90B96ED1A7BB7EE005BB74CB849CA
:1026B400012037EE457B84ED1E0BB4EEC76BF1EEC3
:1026C40010FAB4BF01330023EB6500F06BFC0390F8
:1026D400E0B307EE900A042395ED0A2B96ED046B04
:1026E400B8EEE77B85F8613022EE066B95ED0C4B76
:1026F40095ED088B86EE071BB0EE440B96ED023B7E
:1027040096ED0A5B96ED0C9B93EE080B96ED166B1B
:1027140020EE050B96ED0E5BB0EE403B20EE070B72
:10272400A8EE093B95ED0E7B84ED201B85ED0E1B79
:1027340031EE477BA2EE057B96ED145BA0EE054BD4
:1027440093EE067B85ED0C4B84ED1A7B97F83E8067
:10275400B8F1000F03D095F8623084F88830AB6D7F
:1027640006EE903A96ED447BB8EEE66BB4EE476B1A
:10277400F1EE10FA02D5002B80F2D4809FED720B9B
:1027840096ED427BB7EE005B8249012037EE457B34
:1027940084ED1E0BB4EEC76BF1EE10FAB4BF013337
:1027A4000023AB6500F0FEFB002857D194ED146BB9
:1027B40094ED127B9FED663B9FED675B86EE034BCA
:1027C40034EE456BB4EEC56B84ED106BF1EE10FA8C
:1027D40003DD9FED635B36EE456B84ED186BB8F15A
:1027E400000F01D085ED106BB1EE477BBB6A9FED06
:1027F400584B013387EE045B02EE903ABB62B8EEAD
:10280400620B95ED0A3B96ED487B95ED088B9FEDA9
:10281400541B27EE033B97ED0C7B96ED4A4B9FED43
:102824004A2B27EE007B24EE084B87ED087B85EDD1
:10283400086B84ED0C3B84ED0E4BB0EEC57BB4EE1F
:10284400417BF1EE10FA32FE055B84ED165B85EDFB
:102854000A5B0EB0BDEC048BBDE8F08196ED3E7BC7
:10286400D6E92E23B5EEC07BC4E91623D6E930237E
:10287400F1EE10FAC4E92023D6E93223C4E91E2379
:1028840056DD01231946B1EE047B85F8633095EDDE
:10289400125BB4EEC75BF1EE10FA50DAB7EE007BD0
:1028A400012035EE075B00233B4A94ED1A6B96ED4D
:1028B400267BC4F811309360B4EEC76B5360C2F842
:1028C4000B300123F1EE10FA63744FF01F03E3742D
:1028D40008DC96ED287BB4EEC76BF1EE10FA58BF16
:1028E400B0EE467B9FED200B27EE000BFFF770FE4A
:1028F4009FED1F7BB4EEC70BF1EE10FA50D59FEDA0
:102904001E7BB4EEC70BF1EE10FAC0F2CA81BDEE25
:10291400C00B224B10EE102A1A431346C2F30722AF
:10292400DBB23FE096ED400B2AE796ED180BB9E6D3
:1029340095F86310003918BF01210B46A3E7B2EEE6
:10294400065B0020AFE700BF0000000000000000AD
:1029540083C8C96D305F7440182D4454FB2109406D
:10296400182D4454FB2119405555555555D544400F
:10297400000000000000E040000000000000E0C093
:1029840078150020101500209009002080140020E4
:10299400F5190020F4190020911400200080FFFF95
:1029A400FF231A4684F8213094F8883084F82020D4
:1029B40053B9002223840023C4E92023C4E91E233D
:1029C4000022C94BC4E9162397ED086B96ED007BF2
:1029D400B4EEC76BF1EE10FA40F12F8196ED364B51
:1029E40037EE077BB4EEC76BF1EE10FA40F12281AB
:1029F40096ED3A7B96ED346B84ED1C7BB5EE406B23
:102A0400F1EE10FA07D134EE074BB5EE404BF1EE80
:102A140010FA00D158B17F230022E37400232384E9
:102A2400B14BC4E91623C4E92023C4E91E2395ED60
:102A3400147B39B9B7EE006BB4EEC67BF1EE10FA35
:102A440040F3A580B7EE006B1F230022E37400233C
:102A540037EE067BB0EE460B2384002385ED125B34
:102A640084ED166B85ED147BC4E92023C4E91E2391
:102A740000F088FA00287BD09FED956BB0EE467B82
:102A840084ED166B94ED200B84ED1C7BB5EEC00B2E
:102A9400F1EE10FA00F2E5809FED8D7B94ED1E0BB4
:102AA40084ED207BB5EEC00BF1EE10FA00F2C88085
:102AB4009FED878B94ED1C9B02218C48B0EE490B53
:102AC40084ED1E8BFFF70CFD636AB0EE490B022107
:102AD4001B1204A82375FFF703FD049B022106A81B
:102AE400637594ED209BB0EE490BFFF7F9FC069B50
:102AF400B0EE490B02211B1208A8A375FFF7F0FCE6
:102B0400089BB0EE480B02210AA8E375FFF7E8FC26
:102B14000A9BB0EE480B02210CA81B122376FFF788
:102B2400DFFC0C9B95ED040B96ED207B6376B4EEF5
:102B3400470BF1EE10FA03D0B0EE470B85ED047BA2
:102B4400FFF746FD9FED647B84ED1C0BB4EEC70BD1
:102B5400F1EE10FA26D5B5EEC00BF1EE10FAC0F284
:102B6400A380FCEEC07BCDED037A9DF80C101AE037
:102B740094ED167BB7EE006BB4EEC67BF1EE10FA63
:102B8400C0F299809FED567B84ED166B7AE794ED45
:102B9400160B85ED125BB5EEC00BF1EE10FA7FF665
:102BA4006BAF65E7FF210123514A00200194009394
:102BB4001123FFF72BFAE378A2781B02217943EA69
:102BC4000243A2790B43120243F3170307EE903A30
:102BD400637942EA0343E279B8EEE77B134343F3B4
:102BE4001703002B84ED127B4CDB00204149B7EE28
:102BF400005B81FB0321DA171944C2EBA1220244D2
:102C0400C2EBC22295ED144B9B1A48BF03F2FF732B
:102C1400B4EEC54B06EE903AF1EE10FAB8EEE66B60
:102C240084ED146B02DD012387F84830042385F812
:102C34006030BFE596ED3C7BDCE696ED384BCFE6A5
:102C440000F0A0F900287FF433AFB7EE007B94EDD9
:102C54001E8BB4EEC78BF1EE10FA31DB9FED208BA7
:102C640028E700F08FF900287FF416AFB7EE006B69
:102C740094ED207BB4EEC67BF1EE10FA16DB9FEDEB
:102C8400187B0BE7C3EB83221B48C3EBC222C3EBC5
:102C9400C2221044194A90424FF0FF3098BF0020DE
:102CA400A4E7002380227DE600217CE79FED0C6BE6
:102CB40027EE067BF2E69FED0A6B27EE067BE1E644
:102CC4009FED077B28EE078BF4E600BFAFF300808F
:102CD4000000000000000000000000000000704040
:102CE4000000000000388F400000F03FA4140020D2
:102CF4009114002001021080000210000004200042
:102D0400134B93ED4C7BB5EE407BF1EE10FA1CD0E7
:102D1400104993ED507B91ED104B93ED4E5B93ED89
:102D2400106B27EE047B27EE057BB0EEC77BB4EE79
:102D3400C67BF1EE10FA4CBF01230023064A81F84A
:102D44006230936B01339363704700230149F5E7C5
:102D540090090020101500207815002000000000C4
:102D640070B5082082B000F0E1F8474A00204749D6
:102D7400474E484C484B494DC2E910013EA1D1E9A8
:102D84000001C2E90C014648464903601960196113
:102D9400C2E9010602F11806866002F10806C3E9D9
:102DA4000211C3E90911466004F1600102F1200631
:102DB400C3E90511C3E90711C66095F848113A4EF5
:102DC4003A4884F8621086F888103949C2E9030148
:102DD40038490020516104F161025A6040F2033223
:102DE400354B1A80D5E92A23C4E90823D5E92C23D5
:102DF400C4E90A23D5E90823C4E90C23D5E9062349
:102E040095ED207BC4E90E23D5E91223B0EE470BE0
:102E14002070C6E91A23294B0022C4E91223C4E90D
:102E24001423012384ED047B6360FFF7D1FB9FED42
:102E3400147BB4EEC70BF1EE10FA18D5B5EEC00B47
:102E4400F1EE10FA05DBFCEEC07BCDED017A9DF8C6
:102E54000400FFF7C9F80123D5E922012372D5E95B
:102E64002423C6E91201C6E9142302B070BDFF2071
:102E7400EFE700BFAFF30080FCA9F1D24D62403F01
:102E84000000000000007040781500200000F0BF32
:102E9400BA9C287D10150020981F0020900900205E
:102EA400381F00208C09002080140020A432B8327E
:102EB400BA4CCAE875B23664F41900200000F03F39
:102EC400024B1A780AB901221A70704710150020B3
:102ED4009FED010B704700BF000000000000F07F71
:102EE4009FED010A704700BF0000807F00000000D2
:102EF4009FED010B704700BF000000000000F0FFD1
:102F04009FED010A704700BF000080FF0000000031
:102F14009FED010B704700BF000000000000F8FFA8
:102F24009FED010A704700BF0000C0FF08B5FFF71E
:102F3400EFFF0E4B83ED000BFFF7F2FF0C4B83ED1D
:102F4400000AFFF7C5FF0B4B83ED000BFFF7C8FF2B
:102F5400094B83ED000AFFF7CBFF084B83ED000B11
:102F6400FFF7CEFF064B83ED000A08BDE0150020F5
:102F7400341F0020D01500202C1F0020D81500205D
:102F8400301F0020064853EC102B984301D000203A
:102F94007047C3F31301114314BF0120002070478D
:102FA4000000F07FB5EEC00B91F800C010B5F1EE53
:102FB40010FA0CF0030424DD4FF0010E72460130C8
:102FC400174BC0B203EB8403022813F80E3015D854
:102FD400144C205C034211D01CF0080F4FEA9C00F3
:102FE4000AD1C40613D442EA830213F0380F0A70DC
:102FF40010D04FF0FF3010BD5C07F2D500200A70EE
:1030040010BD4CBF0122002252009646D7E7980615
:10301400F4D4E8E713F0070018BF012010BD00BF87
:10302400A40800209002002008B52DED048B9FED2C
:10303400248BB0EE409B20EE088B9FED231BB0EE5B
:10304400480B05F06DFEBCEEC00B9FED216BB4EE9A
:10305400C68BF1EE10FA30DD88EE067BFCEEC77B02
:1030640017EE902A1E4BBFEE007B1E4983ED000A2B
:103074005A6091ED006BB4EE476BF1EE10FA19D083
:10308400B8EE007B91ED006BB4EE476BF1EE10FAF5
:1030940010D0154B9FED107B91ED006B29EE077B53
:1030A40036EE496BB4EEC76BF1EE10FA4CBF012259
:1030B40000221A70BDEC048B08BD0022D2E700BFC9
:1030C4000000000000408F40000000000000F041BC
:1030D4000000E0FFFFFFEF41000000000000B03CF3
:1030E40000200020000C00206E25002000B1704755
:1030F400FFF79ABF00B5002383B000200021CDE97B
:1031040000330B4BC3E9000101A9684602F044FDFA
:10311400DDE9000101F0E4FE38B901A9684602F0D6
:1031240041FDDDE9000100F0F9FB03B05DF804FBAB
:10313400F0150020F8B50646002003F0F7FD01F075
:1031440097FF851C044618BF012560B15DB10025B9
:10315400012736B185F00105002003F0E7FD2F4378
:10316400EDD02046F8BD00F0F9FB831C044618BFDF
:10317400012308B1002BEBD11D4301F041FF831C57
:10318400044618BF012308B1002BE1D11D430027D9
:10319400DFE700BFF8B51D4F3B78002B31D100F0BD
:1031A400E1FC80B1002442F21076194D0A20344427
:1031B40003F0BCFD0120FFF7BDFF00F0D3FCAC42DF
:1031C40001D80028F2D100F0D3FC002401F0FAFF6A
:1031D400002310494FF040450F4A0B7013700F49FC
:1031E4000F4A0B6013600F490F4A0B6013600F4ABC
:1031F4000F4913600F4AC1E90045C2E900333B702F
:10320400F8BD002000F0C8FCC9E700BF6E2500200F
:10321400FF2C31017125002073250020202500207A
:1032240024250020282500202C25002030250020DE
:10323400000C0020002000209FED0B7B0C4B002095
:103244000C4A0D4910B483ED007B12780B4B0870C7
:103254001A700B490B4B0C4C0C4A087018702070F8
:1032640010605DF8044B704700000000000000008F
:10327400F81500206C2500207525002074250020F9
:10328400782500206D2500207A2500204025002087
:103294008D4BF0B5002832D18C4A1C7811781D78FA
:1032A4008C42157007D08A498A4D8B4C8B4A087022
:1032B4002870206010701A78012A00F096801A781D
:1032C400012A77D0854A117801F0FF0000292CD01B
:1032D400834E0020834C3070217801F0FF0C0029CC
:1032E40000F09B807A491070087020701378042BCA
:1032F40000F2D781DFE803F055313C44AA001A7884
:10330400012A08D0784B1B7813B9714B1878F0BD9B
:10331400764B1878F0BD764A128892B29042F1D179
:10332400744A116800294FD1ECE76E4C6C4E694D1C
:1033340020703178287001B302211170307019782F
:10334400D9B91078C0B2042800F2A881DFE810F0DF
:103354002800B700A1001700B90000205E4C2368C4
:10336400002B00F02181013B2360002B00F01C8125
:1033740008785D4B00221A70F0BD5549B6E75449F0
:10338400554C2368002B7AD15B4D2B68002B00F041
:1033940012812D6801200423087025601370E8E76A
:1033A4004B493378002BE3D00224002308781470AF
:1033B4003370DEE74E4A128892B2002A82D14D4A17
:1033C400116800293FF47EAF4C4C2478002C5CD06B
:1033D400424A1278022A00F0998000283FF472AF22
:1033E400414B1B78002B90D092E73C4A117821B9CD
:1033F4003B4E317809B1384C09E0117801297FF44A
:103404005EAF354C216801297FF459AF344E002159
:10341400317021600221117051E71978002990D090
:103424002C4D1178287885F800C0042900F22E81EB
:103434000FF2040C5CF821F0211400003F15000089
:103444001D160000FF130000451500000020224C4B
:1034540023681BB1013B2360002B89D1284B1B78C7
:10346400012B00F0B180274B1D68002D00F0B180C6
:103474001D680020012308702560137079E7013B63
:103484002360002B7FF474AF7EE71268002AA4D077
:103494009EE71D490868002803DD1B78012B00F016
:1034A400A08015490B68002B00F089800968012071
:1034B400094B074C196004232070137059E7044921
:1034C4004CE701200249C2E76C2500207425002046
:1034D4007A25002078250020402500206D25002035
:1034E400740F0020682500206F250020702500201F
:1034F4004E250020FC1F0020400F00206B250020DB
:103504006A250020F81F0020F41F0020664D2C7847
:10351400002C7FF462AF654F3A7891ED007B002A6E
:1035240076D0634A1178002967D111780129CCB289
:1035340003D01478A21E544254415E4A92ED006BAB
:10354400B4EEC67BF1EE10FA80F292805A4E92ED00
:10355400006BB4EEC67BF1EE10FA12DD92ED006B57
:1035640096ED005BB4EE465BF1EE10FA09D15349D7
:10357400096821B952494FF0010E81F800E0012198
:103584002970002C4AD12A78B2FA82F2520986EDC7
:10359400007B3A7000287FF423AF93E600287FF481
:1035A40078AF474B1878E4E600287FF4EDAE0223A9
:1035B40008781370DDE618460B701370D9E640499D
:1035C400184613700B70D4E6002318460B70137062
:1035D400CFE670B13B4B042508781B681570236057
:1035E400C7E60C680323384835490460137008782B
:1035F400BFE6022308701370BBE611781678C9B2CF
:10360400012E07D01278022A04D0022995D022462E
:10361400294EB9E7022937D0264A274E92ED006B8E
:10362400B4EEC67BF1EE10FA11D592ED006B96ED77
:10363400005BB4EEC65BF1EE10FA08DB1F4A1268B9
:1036440012B91F4901220A7001222A709CE792EDE7
:10365400006BB4EE467BF1EE10FA94D192ED006B60
:1036640096ED005BB4EEC65BF1EE10FA8BDDE5E798
:10367400114E92ED006B96ED005BB4EEC65BF1EE7D
:1036840010FA3FF574AF62E7012456E70C490023B2
:10369400237018460B702B7013706AE60849024DAC
:1036A400F5E7014DF3E700BF7825002075250020DC
:1036B40069250020E8150020F8150020F41F0020DB
:1036C4007A250020400F00204025002010B400225D
:1036D40000231A4C00201A494FF0010CC4E90023BE
:1036E400184C087020701849184C0870208018492C
:1036F400184C087020701849184C0860207018493C
:10370400184C087020601849184C08701849C4E90E
:1037140000234FF47A74174B174A0C601860174B48
:10372400106017491870174B81F800C0164A1870BA
:10373400164B107018705DF8044B7047F815002094
:10374400752500206D250020742500204E250020BD
:103754007A250020782500204025002070250020AF
:103764006F250020FC1F00206B250020E815002099
:10377400400F0020F81F0020F41F002069250020BE
:10378400740F0020682500206C2500206A25002085
:10379400104B1B7893B9104B1A7882B90F4A1278E0
:1037A4004AB11B7803F0FF022BB90D4801210D4BE0
:1037B4000270197070470B4B00221A707047074A49
:1037C40011780029EBD101230549064A0B701370C7
:1037D400704700BF6C250020740F0020682500206E
:1037E400702500206F25002002234FF0FF30136066
:1037F400704700BF10B5144608B101F0ADFD0020BC
:10380400206010BD10B9FF230B707047FE231030E9
:103814000B700F2836D8DFE800F0322F2C2926232E
:10382400201D1A1714110E0B083522234B707047F4
:1038340030234B70704729234B70704700234B7023
:10384400704723234B70704721234B70704711231B
:103854004B7070472A234B70704727234B70704777
:1038640010234B70704724234B70704728234B70F0
:10387400704726234B70704731234B7070473323B6
:103884004B70704720234B70704700BF014B187872
:10389400704700BF79250020014B1870704700BFA6
:1038A40079250020014B1878704700BF7725002048
:1038B400024B1A7810431870704700BF7725002018
:1038C400024A137823EA000010707047772500201D
:1038D400014B1878704700BF76250020014B1888EB
:1038E400704700BF5025002079B18AB1002300B58C
:1038F40001E09A420ED091F800E08C4601330C317D
:103904008645F6D160465DF804FB8C4660467047F8
:103914009446FBE74FF0000CF4E700BF70B50D4E82
:1039240034789CB90C4D00F04DFA00F053FA28603D
:1039340000F0ACFE00F0C0FEA86001F063FA01F0F4
:1039440069FA012368603370204670BD6FF00B0480
:10395400FAE700BF58250020E81E0020734B002022
:103964002DE9F04188B01B78CDE90300CDE90500CD
:103974000790002B00F0C08006AC05AB04AA03A995
:10398400009401F09BFB431D0446DBB2012B01D9DB
:10399400002865D10398002869D0049ADDE905134D
:1039A40001EB030C944507D96FF0070401F0D4FC34
:1039B400204608B0BDE8F081425C012B5C4B00EB73
:1039C4000106A2F1C0051B78B5FA85F54FEA551535
:1039D4000ED96DB1002B5DD002F12D037578DBB2E9
:1039E4000F2B03D9013D012D00F28F80022304E047
:1039F400002B42D0F02A5AD900234E4D55F82330DB
:103A0400002B4DD010469847002847D0D0E9013804
:103A1400002B3CD007AA0599039898470746B8F1AC
:103A2400000FC5D0079D002DC2D0069A954245D8F7
:103A34000021304605F0E2FB059B03993846079ABE
:103A44001944C047079C039A4FF6FF71DDE904301F
:103A5400CDE90004012001F093FA04460028A7D020
:103A640003980028A2D1204608B0BDE8F0816FF089
:103A74000704204608B0BDE8F081FF2A0AD12D4B87
:103A84001B68002B48D0104698470028BED16FF021
:103A94000B04E5E707AAFFF7ADFE89E7039805994C
:103AA40007AADFF89480FFF79FFE0746BAE702F102
:103AB4001C03DBB20C2B22D801239EE701F07CFB14
:103AC4000446039801F048FC0021284601F044FB19
:103AD400049001F03BFB0499059001B3204601F0EA
:103AE4006BFD069A03900028A2D1014630466FF080
:103AF400090405F083FB5BE76FF0080458E702F163
:103B04002D03DBB20F2B7FF671AF02F13803DBB26A
:103B14000A2BC5D8032370E76FF00B0446E7069A17
:103B240030466FF0070405F069FB41E75825002093
:103B340079250020E81E002085180000084B1B781A
:103B440053B110B5044602F069FB00220146204639
:103B5400BDE8104000F0B6BD6FF00800704700BF2C
:103B640058250020014B1878704700BF79250020A4
:103B740008B501F055F901F0E3F800F031F900203F
:103B8400034B044AC3E90000C3E90200107008BDF6
:103B9400E81E00205825002000F088BF01220021E3
:103BA40000F090BD0623002013607047084410B451
:103BB400C37841683BB931B902246FF00B0014603B
:103BC4005DF8044B70470448012403710160002030
:103BD40014605DF8044B7047342500200722014926
:103BE400FFF782BEB4080020F8B544180B4B154605
:103BF40066781F6801F0C8FAB04207D957B16378F4
:103C0400002007495A1C0B702A60F8BD02226FF08D
:103C14000100F9E702226FF00B00F5E734250020DC
:103C24007B25002070B544181546667801F0ACFA7F
:103C3400B04212D9E37862682BB922B902236FF03B
:103C44000B002B6070BD61780648026003714B1C49
:103C5400054A00202B60117070BD02236FF0010033
:103C6400EFE700BF342500207B25002010B5144663
:103C740000F0D0FF20B902236FF00400236010BDD0
:103C840001F090FA00F0D2FF02236FF004002360E9
:103C940010BD00BF0023FF2210B50C46C1F801304F
:103CA4004B710A70FFF7FEFD6070FFF711FEA07004
:103CB400FFF714FEA08010BD10B5144600F0B8FF45
:103CC40030B10020FFF7E8FD01230020236010BD80
:103CD40002236FF00A00F9E738B54518144600F0DE
:103CE400A7FF68B16B78012B06D80120FFF7D4FD3C
:103CF40008230020236038BD02236FF00100F9E798
:103D040002236FF00A00F5E788B9052210B50C46C6
:103D1400FF21206060602170627001F035FAE0706C
:103D240001F030FA0123A080A371E37110BDFFF705
:103D340069BD00BF80B99446FF222DE9F0410D4EC4
:103D44000A70356835B1DFF8308098F800707A1C55
:103D5400944503D0BDE8F081FFF754BD0446481CE8
:103D640029463D443A4601F0DDFF88F800403560BD
:103D7400F0E700BF342500207B25002080B994465D
:103D8400FF222DE9F0410D4E0A70356835B1DFF898
:103D9400308098F800707A1C944503D0BDE8F08117
:103DA400FFF730BD0446481C29463D443A4601F01D
:103DB400B9FF88F800403560F0E700BF34250020E3
:103DC4007B250020014B024A1A607047181F00200F
:103DD4005D1C0000014B1868704700BF181F0020CD
:103DE400014B00221A607047181F0020014B18680D
:103DF400704700BF34250020034611B908B90020DC
:103E04007047024A01201360117170473425002065
:103E1400024A136818441060704700BF342500201C
:103E2400F0B4244C014423683BB3234DA488288870
:103E3400844222D900EB400053F8304003EBC00326
:103E4400DCB1A8781E79864217D9C0EBC00054F8BB
:103E5400206004EB800486B12479E87884420CD98C
:103E64005B79023B012B21D94B78FF2B0BD002232A
:103E74006FF00100F0BC1360704702236FF005007F
:103E84001360F0BC704791F802C006EBC0044F68A1
:103E940006F83030013084F801C0CB78E870002097
:103EA400A370012367601360F0BC704702236FF0B6
:103EB4000700E5E7102000204C0F002010B51B4C34
:103EC400236833B30144A4884888844221D900EB91
:103ED400400003EBC00358790238012822D9B1F815
:103EE40004E01FFA8EF07F2813D8C87988B991F8B6
:103EF40001C03CF0100011D1012483F808C0A3F8DC
:103F040006E089799872A14238BF2146597214603B
:103F140010BD02246FF00100146010BD02246FF084
:103F24000900F4E702246FF00700F0E710200020F6
:103F34000823002013607047FF2201234FF0340C44
:103F440000200A704B708A70CB700A7181F805C02A
:103F54008B71C871704700BF02236FF00F001360AC
:103F6400704700BF08444378012B32D130B5B0F814
:103F740006C0448801791FFA8CFE45791D48036800
:103F8400A3B38088A04229D9F4B9B1FA81F011F021
:103F9400FD0F4FEA501017D1012D15D1BEF1010FBD
:103FA4000ED168B15879023801281BD901240020A8
:103FB40019732146A3F80EC05C731882116030BDDA
:103FC40011B1BEF1010FEDD802216FF009001160AB
:103FD40030BD02214FF0FF301160704702216FF0B5
:103FE4000100EBE702216FF00700E7E702216FF021
:103FF4000300E3E710200020FF2300224FF0110C00
:104004006FF07F00CA800B7081F801C08B70CB7099
:1040140008714A71704700BF0D220149FFF764BC63
:10402400980400202DE9F047254E0844154682B037
:104034003268438804794779002A38D0B188994294
:1040440031D903EB43034FEAC30802EBC30352F82D
:1040540008A0BAF1000F2AD01B79A34223D9C4EBDC
:10406400C404A4005AF80490B9F1000F1FD1D7B1C9
:10407400FA001046019201F043F933684AF804004B
:1040840053F808301859B0B1019A494605F0B6F80A
:1040940033684846012253F8083023441F712A60CC
:1040A40002B0BDE8F08702226FF00100F7E70222B8
:1040B4006FF00300F3E702226FF00200EFE700BFA6
:1040C400102000202DE9F0431F4E084483B017460A
:1040D400D6F80090448890F80480B9F1000F27D0F6
:1040E400B388A34228D908F1FF33DBB2FB2B23D8D2
:1040F40004EB4404E40059F80450CDB9C8EBC802F9
:1041040092001046019201F0FBF8336849F804006C
:104114001859A8B1019A294605F070F83368284661
:104124000122234483F804803A6003B0BDE8F0839D
:1041340002226FF00300F7E702226FF00100F3E7B9
:1041440002226FF00200EFE7102000202DE9F04773
:10415400DFF888A001441746DAF80050B1F802905D
:1041640085BB1FFA89F84FF6FE7308F1FF329A42B5
:104174002CD808EB4801CE00304601F0C1F80446C3
:1041840040B33246294605F039F8AAF80490CAF833
:104194000040B8F1000F10D020464FF0FF32A119B3
:1041A40001234261183000F80C5C00F80B3C20F845
:1041B4000A3C20F8085C8842F3D1012300203B60CC
:1041C400BDE8F08702236FF00300F8E702236FF0E5
:1041D4000100F4E702236FF00200F0E71020002052
:1041E4000B4660B9074AFF2007491268187002EBB2
:1041F4004202096801EBC202D27A5A707047FFF793
:1042040001BB00BF240F0020102000200823002041
:104214001360704770B50179044651B300252E46EA
:104224002B462268C3EBC3000121013502EB800059
:10423400E28994F808C0806800FB02F250181BB9A8
:104244001CF0100F18BF501D00F086FF2179864224
:10425400EBB238BF06469942E3D801EB410104F1C1
:104264001402304601F0A4F810B14FF0FF3363613B
:1042740070BD0E46F3E700BF2DE9F04FDFF8F4817F
:10428400461883B0D8F800000192B6F8029018B12D
:10429400B8F804304B4507D86FF001000223019AA7
:1042A400136003B0BDE8F08F6F4BC3F800907378D0
:1042B400022B2CD809EB490100EBC10AC9009AF87A
:1042C400054094B99AF8084014F0020F44585BD0A2
:1042D400002C6FD098F807509AF804402C44802C96
:1042E40068DC8AF80B5088F80740013B012B11D990
:1042F40072B65E4B1C68002C42D17378012B5ED0E1
:10430400022B75D0002B78D062B60020C6E76FF080
:104314000900C3E79AF80430002BE9D040584FF065
:10432400000BCBEBCB0300EB83019D000979002943
:1043340043D050F823300822002412FB013193F8B3
:1043440001C0083399426444F9D1BBF1000F03D191
:104354009AF80830DB0624D4BAF80E3004FB03F3D1
:104364005F1C00F00FFF874224D8DAF800000BF13D
:10437400010B0544AC609AF804305B45D1DCB7E727
:1043840062B66FF00A0089E7A4B198F806509AF86B
:1043940004402C44FC2C0DDC8AF80B5088F80640B1
:1043A400A3E7BAF80E3004FB03F35F1D00F0EAFE46
:1043B4008742DAD96FF0080070E70C46C5E7DAF8EF
:1043C400143001330AD12A4BBAF8061018888842EF
:1043D40037D0B9F1000F01D101293ED903230220BE
:1043E4008AF80530FFF758FA4020FFF761FA8BE7A7
:1043F4008AF8053062B6204650E701238AF8053072
:10440400B8F80430B3B1013BD8F8002099B201EBFD
:10441400410102EBC10102E0012B7FF675AF537934
:104424008A4202F11802A3F10203DBB2F4D1012B98
:104434007FF66AAF0120FFF72FFA4020FFF740FA1A
:1044440062E70AF11402D3E9010101F083F80028BC
:10445400C4D062B66FF0020020E75046FFF7DAFEE0
:10446400AAF81040F3E700BF240F00203C250020E9
:10447400500F00201020002070B41C4C23685BB344
:104484000844B4F804C04488A1B28C4524D901EB93
:10449400410153F8315003EBC103EDB190F804C06E
:1044A4001979614518D9CCEBCC0155F8216005EB9D
:1044B40081058EB14079297981420DD95B79023B1E
:1044C400012B0FD90A4B0121D87000201C8083F8DE
:1044D40002C0116070BC704702216FF001001160CE
:1044E40070BC704702216FF00700F8E7102000202D
:1044F4004C0F002008442DE9F84343781446022B5E
:104504000FD85F4E336893B1B38883B172B65D4BF5
:104514001F6897B162B602236FF00A002360BDE8FA
:10452400F88302236FF009002360BDE8F8830223B7
:104534006FF001002360BDE8F8834378012B3FD07E
:10454400022B06D063B362B6012300202360BDE8CA
:10455400F883B588E5B1316805EB450001260B46C3
:1045640001EBC0005A791833022A08BF03F8136C10
:104574009842F7D1002201E0012BE4D901324B79B2
:10458400183192B2023BAA42DBB2F5D3012BDAD93D
:104594000120FFF781F94020FFF792F962B6D3E7D3
:1045A400B1880029F4D0336801EB4101012003EB09
:1045B400C1015A7902B1587118338B42F9D1E7E736
:1045C400B1880029BFD03D46DFF8BC803068B8F818
:1045D40000C005EB45024FEAC20900EBC202537961
:1045E400022B1AD001358D42F3DB0029ABD0002514
:1045F4004FF0030802E0B388AB4234DD3368013581
:104604003B44183758790228F5D183F80580FFF721
:1046140043F94020FFF74CF9EDE75369013303D028
:104624000135A942D5DCE0E7D388634508D0002DE5
:10463400F6D1012B19D901294FF00105C9D8D4E7C6
:1046440014320135D8E9010100F084FFB188A94290
:1046540013DD0028BAD062B600283FF475AF0223F8
:104664006FF0020060E70020F5E71046FFF7D2FD87
:1046740033684B441D820125E8E70028B5D0EAE7FA
:10468400102000203C250020500F00200023064A63
:104694000649074810B4074C136053602360086050
:1046A4005DF8044B704700BF102000201C1F002041
:1046B400992000003C250020014B1868704700BF7A
:1046C4001C1F00202DE9F04F2DED028B8DB00490BE
:1046D400CDE9052172B6DFF8CC83D8F80030013378
:1046E400C8F8003062B6DFF8C0A3DAF80070002F13
:1046F4003ED0BAF80430002B3AD04FF0000907E05E
:1047040009F10109BAF804301FFA89F94B452FD988
:1047140009EB4903DE0007EBC303187A10F0020427
:10472400EED15A79032AEBD1DB88049A9342E7D17C
:104734004946204600F020FC059B09903BB3DAF87B
:104744000030002B00F09581BAF804204A4540F26D
:10475400C9809C19237B022B00F04C81099B002B00
:1047640040F0808109F101091FFA89F94A45CFD83F
:104774000023039372B6D8F80030013BC8F8003028
:1047840062B603980DB0BDEC028BBDE8F08FDAF889
:104794000030002B00F09E80BAF804204A4540F215
:1047A40099801E44337B022B00F00F81059B0793F5
:1047B400012308933379002B00F0CC80099B00225D
:1047C400B3FA83F303925B095B4208EE103A0123C8
:1047D400CDE90A971F4607F1FF3B346800F0B6FCA9
:1047E400079B5FFA8BF58146AB46C5EBC50504EB29
:1047F4008504AD00002B40F0C18033682B449A68D7
:10480400F38902FB03F3327A581CBBF1000F02D187
:10481400D10648BF581D0121206100F09DFC736939
:1048240001465A1C00F0C580184600F0C5FEE06041
:10483400002800F0A8803368484400222B446061BB
:104844009A615869F17A0246594402F8011BBBF196
:10485400000F0AD1317AC90607D50699C0F80110AC
:104864009969C3F818B004310A445A61E368002B0B
:104874004FD08B4BF2881B889A4252D022796369BD
:10488400002A4DD000252A4611E00A68104214BFC0
:10489400012200221A70A16901359BF801200A4403
:1048A40000211344A161EAB22179914238D92168E7
:1048B40001EBC20B11F832200121FF2A01FA02F0A8
:1048C400DBF80410E1D118469BF8012001F02AFA24
:1048D4000346E0E7099B002B40F0D6804FF0FF33FE
:1048E400039347E7099B002BF8D009F101034FF02C
:1048F400FF329BB2039249460020994600F03EFBEA
:10490400BAF804304B457FF635AF002C7FF400AF86
:1049140030E73379BB4240F294800137FFB25AE763
:104924006361089B002BF4D00121206900F014FC82
:10493400034618EE100AD4E90321CDE900910A993F
:1049440000F01EFB0390002836D13379BB42E4D833
:10495400DDE90A97002301240393338AF2890133A2
:10496400B3FBF2F102FB11333382099B002B40F0BD
:10497400938009F101091FFA89F9C1E7338A002BF1
:104984003FF43BAF72E76FF00903DDE90A97039345
:10499400338AF2890133B3FBF2F102FB1133338220
:1049A400099B002B3FF4E6AE09F1010300249BB2FE
:1049B400A1E700F0A5FC3AE7E06800F0CDFC33790C
:1049C400BB42AAD8DDE90A97E2E7354BF2881B8897
:1049D4009A423FF4EBAEB9F1000F7FF4E7AE338AAD
:1049E400F28901339B1AB3FA83F35B090893012319
:1049F4000793DFE62A4BE1881B8899423FF4AEAE69
:104A0400B9F1000F7FF4AAAE238A0BB323795BB10B
:104A140000252E46236801362B441C35D86800F047
:104A24009BFC23799E42F5DB4FF000032382099B14
:104A34009BB9BAF80430012B7FF69AAE4FF0010906
:104A440066E6039BB3FA83F4DDE90A97640984E715
:104A5400099B13B9012AF1D88AE6002301240393A0
:104A6400234648E709F10103002201249BB2039283
:104A740041E700283FF432AF1C464FF0FF3209F102
:104A8400010303929BB236E709F101034FF0FF32B1
:104A9400059C9BB203922EE709F101039BB22AE71E
:104AA400500F00203C250020102000202DE9F04F5D
:104AB400554F89B03B68002B00F0978072B6534B7A
:104AC4001D68002D40F08A80B7F804B0D7F800A024
:104AD400BBF1000F7CD00AF1050253462C46A946CF
:104AE40003920AF11002049205E001340635A4B2DF
:104AF400A3456ED03B6803EB85031A7B022AF4D1ED
:104B0400DA88434B1B889A42EFD0002CEDD1039BEB
:104B140013F82530032BE8D1049B33F82530002B00
:104B2400E3D02146204600F027FA0AF10403B0FA44
:104B340080F013F8252040094142002A5ED0A046A7
:104B4400CDF818B007948B464C46994607E019F8FF
:104B5400252008F101081FFA88F39A424AD9C8EBC4
:104B6400C8065AF82530012103EB8603B600D8683D
:104B74000028EED0186900F0EFFA059000F0E6FA8C
:104B84005AF825200446002102EB060CDCF80C2020
:104B94000244DCE904C0821AACEB020204F02EFBEE
:104BA4005AF82520059B002102EB060C5846DCE947
:104BB40003E2CDE90042724600F0E2F9044600281F
:104BC400C5D05AF825303344D86800F0C5FBBEE799
:104BD400D94662B6484609B0BDE8F08F62B66FF0B8
:104BE4000509484609B0BDE8F08F9946484609B022
:104BF400BDE8F08FA146DDF818B0079C0023049AA5
:104C040022F8253071E700BF102000203C25002049
:104C1400500F002072B6044B1B68002B0CBF012000
:104C2400002000D062B670473C25002062B6704771
:104C34002DE9F84F364B1F68002F57D09E8872B667
:104C4400344A1568002D0CBF4FF001094FF00009DC
:104C540043D14FF0FF3AC3E900552F4BC3F800A0EE
:104C640062B600F093FA7EB3BB46DFF8B08004E08E
:104C740001350BF1180BAE4226D0BBF80630B8F85C
:104C840000209A422DD00DB9012B34D9DBF8003025
:104C9400002BEDD09BF8041071B10024C4EBC402C6
:104CA400013453F8220028B100F056FB9BF804109D
:104CB400DBF80030A142F1DC0135184600F04CFB72
:104CC4000BF1180BAE42D8D1384600F045FB40201A
:104CD400FEF7F6FD4846BDE8F88F62B64846BDE8E3
:104CE400F88FDBF8140000F059FCCFE74FF001090E
:104CF4004846BDE8F88FDBF81400431C02D1CBF81A
:104D040014A0C3E700F0E8FBCBF814A0BEE700BF93
:104D1400102000203C250020240F0020500F0020EC
:104D240010B51446FFF784FF30B10120FEF7B4FD3F
:104D340001230020236010BD02236FF00A00F9E76D
:104D440008B5FFF775FF024B00221A6008BD00BFCB
:104D54001C1F002002220149FEF7C6BD800400206A
:104D640070B5441882B01546667800F00DFA08381C
:104D7400864215D8E1786068FFF73EF8A0B1627802
:104D84000192FFF733F8019A04F1080100F0CAFF19
:104D94006078FFF73DF8012300202B6002B070BD5E
:104DA40002236FF00100F8E702236FF00B00F4E731
:104DB400F0B5441883B01546FFF718F8677806462F
:104DC40000F0E2F99FB1831E9F4210D8AEB1627821
:104DD4000192FFF70BF8019AA11C00F0A3FF607881
:104DE400FFF716F8012300202B6003B0F0BD022367
:104DF4006FF001002B6003B0F0BD02236FF00B00D5
:104E0400F2E700BF014B024A1A607047201F0020DE
:104E1400D52D0000014B1868704700BF201F0020EB
:104E2400704700BF0023C0E9003070474368002288
:104E34000A6019604160704703680B6013B11B6816
:104E4400036003B170474060704700BF03680B60A4
:104E54000BB1016070474160016070470023C0E9F5
:104E64000030704710B5002382B0019372B60E4C27
:104E7400204601A9FFF7E0FF019820B100F06CFA89
:104E8400019B002BF4D1094C03E000F065FA019B6F
:104E940033B1204601A9FFF7CFFF01980028F4D1D0
:104EA40062B602B010BD00BFD01F0020D81F002082
:104EB40010B5002382B0019372B6084C03E000F0F1
:104EC4004BFA019B33B1204601A9FFF7B5FF0198C6
:104ED4000028F4D162B602B010BD00BF4C1F002000
:104EE4002DE9F0411F4F3B7823B16FF00B042046AE
:104EF400BDE8F08105461C480E46FFF793FF1B48AA
:104F0400FFF790FF1A48FFF78DFF00F089F9044678
:104F14000028ECD100F010FE804600F00DFE804524
:104F24001ED808F1080800F0FFFD804400F0FEFDE3
:104F34004044DFF840800221424600F039FA04463A
:104F44000028D4D1D8F8000000F006FE31462846E7
:104F540000F098FC04460028C9D101233B70C6E741
:104F64002046E6E759250020D01F0020D81F002046
:104F74004C1F0020440F0020012070470020704780
:104F84002DE9F0411D4682B00023089E0193431C85
:104F9400DDF82480022B29D814463AB3074600F0E2
:104FA400C3FD0830B04221D1B8F1000F1ED04644F1
:104FB400AE421BD8104B1B78DBB172B6A5F10801C9
:104FC400434601AA04F1080000F03EFD054620B165
:104FD40062B6284602B0BDE8F081019B214607482D
:104FE400636000EBC700FFF721FFF1E74FF0FF35E7
:104FF400EFE76FF00805ECE759250020D01F0020EB
:10500400194B70B5002582B01B7801954BB372B66D
:10501400164E01A906F10800FFF70EFF62B60198CB
:1050240098B101254268082100F048FC044610B9F3
:10503400204602B070BD72B6019906EBC500FFF7B9
:1050440005FF62B6204602B070BD72B601A93046B3
:10505400FFF7F2FE62B601980028E3D16FF0010475
:10506400E6E76FF00804E3E759250020D01F00208D
:10507400104A002310B582B01278CDE90033AAB1EA
:105084006A46082101A800F07DFC044610B12046C0
:1050940002B010BDDDE900235A6072B606480199DA
:1050A400FFF7C4FE62B6204602B010BD6FF00804DC
:1050B400EDE700BF592500204C1F0020F0B583B058
:1050C4001C46089F002F18BF002B4FF000030CBF95
:1050D4004FF0010C4FF0000C0193002A08BF4CF074
:1050E400010C002908BF4CF0010CBCF1000F1FD1CA
:1050F400F0B9144B1B78F3B115460E4672B612483C
:1051040001A9FFF799FE62B60198B8B13A46416821
:10511400083000F0B3FC019B074633605B6808333A
:105124002B6000F001FD08302060384603B0F0BD6C
:105134004FF0FF37F9E76FF00807F6E76FF0010764
:10514400F3E700BF592500204C1F002008B500F0EC
:10515400EBFC083008BD00BF10B5044629B900F0C7
:10516400EBFCA04205D2002010BD00F0E1FCA042FF
:10517400F9D3083400F0D8FC044400F0D7FC2044F0
:1051840010BD00BF00F0D4BC00F0D6BC10B500F0D8
:10519400D5FC044618B9FFF765FEFFF789FE2046E3
:1051A40010BD00BF10B500F0C9FC044608B9FFF7F4
:1051B40059FE204610BD00BF014B1868704700BF60
:1051C400440F002038B5114D2C780CB9204638BD59
:1051D40000F0C8FC04460028F8D1FFF743FEFFF7AF
:1051E40067FE0B4B186800F077F900F01DFA0446CF
:1051F4000028EBD10748FFF731FE0748FFF72EFEE2
:105204000648FFF72BFE2C70E0E700BF592500206D
:10521400440F0020D01F0020D81F00204C1F002066
:105224002DE9F04F2E4B83B0DFF8CCB00322DFF82A
:10523400CCA018462B4F59460193564600F0FEFA6F
:1052440027F003074FF000094FF0FF08019B53F8C4
:10525400042B5BF8045B141DF260376005FB04F259
:10526400C6E901553261C7B100213846019303F004
:10527400C5FF019B85B13A460021C7F8049087F821
:10528400008004E0C2F8049000F804804260013118
:10529400104622448D42F5D132691744124A14361D
:1052A4009345D4D140F2F6320021104803F0A6FF12
:1052B40000200F4B0F4ACAF83C00CAF844001060A3
:1052C400CAF84000CAF85000CAE91200CAE9150039
:1052D400CAE91700C3E9000003B0BDE8F08F00BFBE
:1052E4005C0F002023200020740F002024210020C4
:1052F400182000201C250020680F0020C02000205A
:1053040020B330B472B612490023124C0A4654F842
:10531400045B5FFA83FCA84201D8556835B90133B0
:105324001432032BF3D162B600200DE003EB8303A8
:105334009B00C8580028F6D04268013DCA50194461
:105344004D6000F804CB62B630BC7047704700BFB4
:10535400C02000205C0F0020F0B110F8043C021FB4
:10536400052B1AD0042B17D810B472B603EB8303A1
:105374000D4CFF214FEA830C00F8041C04EB83035B
:1053840054F80C100160596844F80C20013159603C
:1053940062B65DF8044B70477047044B5B68002BA2
:1053A400FAD01046184700BFC02000201820002063
:1053B400002918BF002800F085802DE9F84F154614
:1053C400002A48D00330414E0C4620F0030026F05A
:1053D4000306071D01FB07FB72B63D4BD96BDA6C64
:1053E40051B1196D79B362B64FF0FF386FF009000F
:1053F400C5F80080BDE8F88F002A60D09345F0D846
:105404004FF0030808EB880143F8216003EB8103A4
:10541400C3E902405C609EB15A460021304603F065
:10542400EDFE0022FF21334610467260317003E026
:105434007060D9555E603B4401323E449442F7D8D3
:1054440062B60020D4E7196E164439B18B45CAD828
:105454004FF00408D6E74FF0FF30CBE74FF00408D5
:10546400DFF870A040F2F331DAF80090A1EB090103
:105474005945B8D308EB880143F8216003EB810355
:10548400C3E902405C60C3F810B09EB15A460021E3
:10549400304603F0B3FE0023FF2031461A46736002
:1054A400307003E07260C8554E60394401333E44A5
:1054B4009C42F7D809EB0B02CAF80020C0E74FF072
:1054C4000308CDE74FF0FF30704700BF27210020CD
:1054D400C02000201C250020C31E012B32D872B628
:1054E40003281A4B03D11A6D92B91A6E82B900EBD4
:1054F40080000022810003EB80005A50D96BC26007
:10550400C0E9012261B11A6D9AB162B600207047F8
:105514000022DA639A64C3E9102262B6002070475D
:10552400DA6C002AEFD00A48D9640168891A01604C
:10553400E9E7196E0029E8D005481A6603685B1A82
:105544000360E2E74FF0FF30704700BFC020002047
:105554001C250020002918BF002819D0C2B110B49E
:1055640072B60D4C23680BB9636843B162B64FF051
:10557400FF316FF009005DF8044B11607047C4E916
:10558400000162B6052118465DF8044B11607047AE
:105594004FF0FF30704700BF18200020052806D1C7
:1055A40072B6044B0020C3E9000062B670474FF0A6
:1055B400FF3070471820002081B3052838B5044611
:1055C40021D0C31E012B1CD800EB8003144A4FEAE0
:1055D400830C02EB830352F80C0090B1D868884224
:1055E4000FD372B6596859B152F80C0040B14568EE
:1055F400013942F80C50596000F8044B62B638BDCA
:1056040062B6002038BD074B1B68002BF9D0081D7B
:1056140098470028F5D000F8044B38BD00207047A7
:10562400C02000201820002000219F220B4810B524
:105634000C4603F0E3FD40F2F6320948214603F03C
:10564400DDFD084B6422214607481C6003F0D6FDAB
:10565400064B2046C3E9004410BD00BF20200020B3
:10566400242100201C250020C02000201820002018
:1056740038B5094C25686B1C06D100F003FE0028E0
:10568400206004DB002038BD6FF00B0038BD6FF0E4
:105694000B00256038BD00BFE40E0020012803463E
:1056A40003D8034A0020137070474FF0FF3070474F
:1056B400572500202DE9F04F002383B001930029E2
:1056C40043D0B0FA80F806464FEA581800283CD078
:1056D400214F3868431C3BD00D46DFF88090DFF83B
:1056E40080A044462A1B311901AB00F0DBFD00BB4E
:1056F400019B53EA04021C440DD0A54294BF4FF011
:10570400010B4FF0000B0BD8BBF1000F0FD00020A2
:1057140003B0BDE8F08F9AF800309BB1144693466D
:10572400C84509D96FF00E0003B0BDE8F08F3868A2
:10573400D8E76FF00B00EBE7002008F10A0801F04E
:10574400F5FAE1E76FF00500E2E74FF0FF30DFE73D
:105754006FF00800DCE700BFE40E00207F841E0029
:10576400572500202DE9F04F002383B00193002931
:1057740043D0B0FA80F806464FEA581800283CD0C7
:10578400214F3868431C3BD00D46DFF88090DFF88A
:1057940080A044462A1B311901AB00F08DFD00BBEB
:1057A400019B53EA04021C440DD0A54294BF4FF060
:1057B400010B4FF0000B0BD8BBF1000F0FD00020F2
:1057C40003B0BDE8F08F9AF800309BB114469346BD
:1057D400C84509D96FF00D0003B0BDE8F08F3868F3
:1057E400D8E76FF00B00EBE7002008F10A0801F09E
:1057F4009DFAE1E76FF00100E2E74FF0FF30DFE7E9
:105804006FF00800DCE700BFE40E00203F420F0009
:105814005725002010B5084C2068431C06D000F022
:105824007BFD28B94FF0FF33236010BD002010BD6D
:105834006FF00B0010BD00BFE40E002002B3F0B502
:10584400A0F1040E0EEB820E012A18D08C460346FA
:1058540001261D4653F8044B6D68A54209D2DCF8B5
:1058640000500026DCF80470CCE900751D6843E99B
:1058740001549E450CF1040CEBD1002EE4D0F0BD94
:10588400704700BF10B5094C23785BB9FFF7F0FEF1
:1058940038B9074B0749084A18800123088010606B
:1058A400237010BD6FF00B0010BD00BF5A250020FF
:1058B4004425002048250020E41E0020052A2DE967
:1058C400F84354D9B0FA80F304465B0900284ED05B
:1058D4002A48007800284DD034F801806718B8F1C0
:1058E400000F41D008F1060191423DD8244D4FF6F6
:1058F400FC7208F1040C2988904507EB0C067980AA
:1059040008D017FA8CF03A4612F8011B0B44824275
:105914009BB2F9D10421384627F80C30FFF7CAFEB0
:10592400814610B14846BDE8F8830120FFF7B6FE72
:105934004146381DFFF7BEFE814628B90221304694
:10594400FFF7B8FE814628B10020FFF7A7FE4846BE
:10595400BDE8F8832046FFF7FFFC2B8800200133C5
:105964002B80FFF79BFEF2E76FF00609DAE74FF0B2
:10597400FF39D7E76FF00809D4E700BF5A250020A4
:10598400482500202DE9F04782B0002852D0174660
:10599400002A4FD02A4B1B78002B45D00C460421FB
:1059A40006460DEB0100FFF7DDFE054660BBBDF8C2
:1059B40004A0BAF1000F3AD0224B0AF10609186884
:1059C40004EB0901FFF7F8FD8046B0B329462246EF
:1059D40003F014FC019B012048F804304444FFF711
:1059E4005DFE514604342046FFF7BCFE80B904EB4B
:1059F4000A000221FFF7B6FE054648B9FFF74EFE3E
:105A0400C6F80080C7F80090284602B0BDE8F087C9
:105A140000206FF00605FFF741FE00234046336087
:105A24003B60FFF799FCEFE76FF00805ECE76FF0D8
:105A34000605E9E74FF0FF35E6E76FF00905E3E710
:105A44005A250020480F0020002B18BF002A0ED032
:105A5400B0FA80FC4FEA5C1C48B110B49C1D8C4227
:105A640008D80380604614605DF8044B70474FF01B
:105A7400FF3070474FF0FF30F6E700BF002A18BF31
:105A8400042947D970B50446002837D0234B1B7826
:105A9400002B3CD005884388A81D1FFA83FC88424C
:105AA40032D11F49086800B31E490888844520D9AB
:105AB40001308445D4BF00206FF004000B806319CB
:105AC400B3F804E04FF6FC739D4215D005F1040CC5
:105AD400002314FA8CFC14F8011B0B4464459BB29C
:105AE400F9D19E450DD1156070BD01260E600D499A
:105AF400E4E76FF00300E1E70023F2E74FF0FF3043
:105B040070BD6FF00C0070BD6FF0060070BD6FF0DB
:105B1400080070BD4FF0FF30704700BF5A250020C9
:105B2400E41E002044250020042070470220704712
:105B34004FF6FC70704700BFFF20704700200349F8
:105B4400034A044B088010801860704748250020E1
:105B540044250020E41E0020014B1860704700BF5C
:105B6400480F002010B5084C207800B910BDFFF78D
:105B740051FE0028FAD10549054A064B20700880D9
:105B84001080186010BD00BF5A2500204825002051
:105B940044250020E41E002018B111B10023036045
:105BA4000B60704718B111B1002303600B6070479C
:105BB40000224FF4165108B5104600F009F8BDE86C
:105BC4000840FCF71DBA00BF08B500F0ADFAFEE7C7
:105BD4002DE9F0430023DFF8448183B0C8F8003096
:105BE400082814D8DFE800F02248525C66707A0571
:105BF4001600802300223E480191C8F8003002F0CC
:105C0400F3FAD8F80030019913F4807F03D003B07D
:105C1400BDE8F083002343F4807300223548C8F8BC
:105C2400003003B0BDE8F04302F0DEBA0123324D88
:105C3400324CC8F8003040F2EE28314F2E68DFF8BD
:105C4400E09004E0B3F5FA6FE1D802F0BDFF02F092
:105C5400BBFF237843B13B78DB0705D52B68D9F824
:105C640000209B1A0E2BD2D82B6822789B1B002A6B
:105C7400E8D14345E9D9CAE7022300222148C8F8FC
:105C8400003003B0BDE8F04302F0AEBA04230022B2
:105C94001D48C8F8003003B0BDE8F04302F0A4BAD0
:105CA400082300221948C8F8003003B0BDE8F043C7
:105CB40002F09ABA102300221548C8F8003003B045
:105CC400BDE8F04302F090BA202300221148C8F83E
:105CD400003003B0BDE8F04302F086BA402300224E
:105CE4000D48C8F8003003B0BDE8F04302F07CBAB8
:105CF4003419002094190020C81F002065250020B5
:105D040064250020F416002054170020B417002046
:105D14001418002074180020D4180020881D0020B6
:105D2400E81F0020844641EA000313F003036DD109
:105D3400403A41D351F8043B40F8043B51F8043B4A
:105D440040F8043B51F8043B40F8043B51F8043B51
:105D540040F8043B51F8043B40F8043B51F8043B41
:105D640040F8043B51F8043B40F8043B51F8043B31
:105D740040F8043B51F8043B40F8043B51F8043B21
:105D840040F8043B51F8043B40F8043B51F8043B11
:105D940040F8043B51F8043B40F8043B51F8043B01
:105DA40040F8043B51F8043B40F8043B51F8043BF1
:105DB40040F8043B403ABDD2303211D351F8043B91
:105DC40040F8043B51F8043B40F8043B51F8043BD1
:105DD40040F8043B51F8043B40F8043B103AEDD240
:105DE4000C3205D351F8043B40F8043B043AF9D291
:105DF400043208D0D2071CBF11F8013B00F8013B64
:105E040001D30B8803806046704700BF082A13D370
:105E14008B078DD010F003038AD0C3F10403D21A88
:105E2400DB071CBF11F8013B00F8013B80D331F8BC
:105E3400023B20F8023B7BE7043AD9D3013A11F83C
:105E4400013B00F8013BF9D20B7803704B784370A7
:105E54008B7883706046704772B6EFF305834F4CBE
:105E6400C4F88430EFF308824FF0E0234C4E4D4DDC
:105E7400D3F8280DD3F82C1DC4E92201D3F8341D1E
:105E8400D3F8383DC4E924139369C4F89830D3692E
:105E9400C4F89C3001F0FCF884ED280A01F07CF889
:105EA4000B214FF0FF32C4F8A4000B46C4F8801055
:105EB4003D49301D5A40202402F00103013C01FBFE
:105EC40003F383EA5202F7D1A84202D0736806466C
:105ED400EFE7324BC3F8A820BFF34F8F4FF0E02316
:105EE4002F49324AC3F8701FC3F8702FBFF34F8F86
:105EF400BFF36F8F2E4A02252E48D36E2E4943F4EA
:105F04004053D3660560D3692C4823F07F0343F0E4
:105F14004003D3610B6883423DD8264D00214FF0E6
:105F2400E0234FF0FF3229600126C5F80811244907
:105F3400C5F80011C5F80861C3F88021C3F88421AD
:105F4400C3F88821C3F88C21C3F8902101E001F043
:105F540091F9D5F80C31002BF9D00134C5F80C6156
:105F64004F2CF4D9174B022017494FF00042C1F8C7
:105F740040015A63D5F80C313BB9144814490D4A11
:105F84000163D2F80C31002BFAD04FF0E023114A10
:105F9400C3F80C2DFEE700F051FDBEE700FF2720FB
:105FA40080FF2720A8FF27202083B8EDA0FF27200B
:105FB40000C00F40004008400C0C0020803DCD0B79
:105FC400009F240000900D4000002E4000800F40F0
:105FD400F100AD0B0400FA05002805DA044B00F0CB
:105FE4000F00C05C40097047024B185C704700BF4B
:105FF40014ED00E000E400E080B485B000AF786008
:106004007B6801335B017B607B68FB60FB6883F327
:10601400118800BF00BF1437BD465DF8047B70478C
:10602400EFF3008001B5EFF3118003B46520FFF7AF
:10603400D3FF03461846FFF7DFFF0B4B9B680A4A62
:1060440043F001039360084B9B68074A43F0020343
:106054009360054B9B68044A43F004039360034830
:1060640000F098F800BF00BF00001F40D9410000B5
:1060740080B485B000AF78603960204B9B6E1F4AB6
:1060840043F0407393661E4B1B681D4A43F0400364
:1060940013601B4B1A4A5B685360194BDB68184A40
:1060A40043F00103D360164A3B681361144B1B6829
:1060B400134A43F001031360124B134ADA627B68FC
:1060C400DBB2FB73114BBB60FB7B10330D49BA6829
:1060D40041F8232000BF7B6803F01F03012202FA6A
:1060E40003F17B685A090A4B13449B000A461A6061
:1060F40000BF1437BD465DF8047B704700C00F40F5
:1061040000001F400010002045420000A140000094
:106114004038003880B500AF42F6E0616520FFF7F3
:10612400A7FF00BF80BD00BF80B400AF034B202297
:106134001A6000BFBD465DF8047B70478CE100E047
:1061440080B400AF034B20221A6000BFBD465DF847
:10615400047B70470CE100E080B500AFBFF34F8FC4
:1061640000BFBFF36F8F00BFFFF7DEFF00F0DCF866
:10617400FFF7E6FF00BF80BD80B483B000AF00230B
:10618400FB710123FB71FB7918460C37BD465DF8A2
:10619400047B70471EF0100F08BFB0EE400A03B432
:1061A40088B004A006904FF0807007907FF006003E
:1061B4008646704703BC8047BFF36F8F00DFFEE75E
:1061C40000BF00BF1EF0100F08BFB0EE400A1EF063
:1061D400040F0CBFEFF30880EFF30980816911F815
:1061E400020C10B101280DD00BE01EF0100F0CBFF3
:1061F4001AB008B003BC80F3118803BC80F3008894
:106204000847FEE74EF61451CEF200010A6842F048
:1062140001020A607047F4E700BF00BF134B10B5DA
:106224001B78134C012B02D02368012B16D1236851
:1062340053B1104B1C6800F0CDFD8442A0EB040068
:1062440088BF00F1FF3010BD2368002BF1D100F0AE
:10625400C1FD084B012218602260EBE700F0BAFD93
:10626400044A03460020136010BD00BF5C250020D3
:10627400541D0020501D0020014B00221A7070474D
:106284005B25002000224FF4E131104608B5FFF7EA
:106294009FFC01E001F074FE01F066FE0028F9D1D4
:1062A40008BD00BF38B514461D46084611B201F0BA
:1062B4008DFE00202C6038BD00202DE9F0411860CF
:1062C4001C460E46154601F04FFE90B1114F4FF09B
:1062D400010803E001F054FE02280DD03B78002BA6
:1062E400F8D003E001F04CFE431C0DD12068854238
:1062F400F8D80020BDE8F08187F8008006F8010B8B
:10630400236801332360E9E706F8010B20680130B4
:106314002060ECE75B2500204FF47A7008B500F0AC
:1063240005FD002008BD00BFF0B52D4C85B02578D3
:106334006B1C23702DB12B4B012225701A6005B004
:10634400F0BD03A8FCF73AF9FFF7FAFE264B1E68E6
:1063540096ED080B8DED000BFCF76AF92846234DEA
:106364009DED000BFCF74EF8FFF7DEFE23789DF859
:106374000D20013B23706B781AB35A1C6A7023BB3F
:106384006378002BDBD101276770FFF7D9FE96ED08
:106394000E0A9FED117BB8EE400B20EE070B8DED3E
:1063A400000BFCF7ADFC38469DED000BFCF72AF81A
:1063B400FFF7BAFE6A786378013A013B6A7063704A
:1063C400BDE7002BDCD105B0F0BD064A01216B709E
:1063D4001160B4E7AFF30080FCA9F1D24D62503FE5
:1063E400F81E00200016002094020020FC1E00204D
:1063F4002DE9F04100243F4D3F4E404F2C70347046
:10640400FFF7D6FBD7F8008021462046C8F80040A5
:10641400FBF746FF08B1BDE8F081FCF7A1FC72B6BA
:1064240062B608F14001D8F80400FBF73BFF0028EE
:1064340049D072B6FFF76EFEFCF74CF800284ED038
:106444000023DBB23370FFF77BFEFDF71FFAC4B203
:1064540062B6337893B92DE001232B702B78B3FA0D
:1064640083F35B0933702B78CBB9012C1BD0FDF778
:106474000DFAC4B2FFF780FE3378DBB1FCF70CF8F9
:10648400FCF728F80028E7D1FCF71EF80028E3D130
:106494003B6893F84830003B18BF0123DDE7FFF762
:1064A40043FE012CE3D1FDF7F1F90028DFD1FFF71A
:1064B400E3FEDCE7FCF704FDFBF7F2FFFFF784FBE8
:1064C40072B60020A7E74FF0FF30FBF737FFFBF76A
:1064D400FBFF0028ADD0012388F84830A9E7FBF77B
:1064E400F3FF0028ACD13B6893F84830B3FA83F348
:1064F4005B09A6E7602500205C25002094020020AB
:1065040090F81CC04160BCF1020FC26001D18368E5
:10651400184702F0D3BA00BF324B334930B5D3E940
:1065240011542079C8771A6C95F804C081F81CC0FE
:10653400087752B1B2F5004F23D32C4911442A4AAB
:106544001964D07682F81BC030BD19680F24D86C4A
:106554008C6540F20134CA610C614FF47C544C6187
:1065640003210468246883F83D10214B9C4226D102
:10657400037F4260022BC26026D18368BDE83040AD
:1065840018472D68E98B090422D492B2EA83216862
:10659400EC8BA4B2EC82CC8B240405D5CC8BC2F357
:1065A400080204F47E442243CA83CA8B92B2CA828C
:1065B40000210D4A1964D07682F81BC030BD2346F1
:1065C4001146BDE830401847BDE8304002F076BAC5
:1065D400E98BC2F3080E92B201F47E4141EA0E0146
:1065E400E983D4E75416002000800E400180FFFFA9
:1065F40081450000324B334930B5D3E91154207939
:10660400C8771A6C95F804C081F81CC0087752B199
:10661400B2F5004F23D32C4911442A4A1964D07689
:1066240082F81BC030BD19680F24D86C8C6540F209
:106634000134CA610C614FF47C544C610321046839
:10664400246883F83D10214B9C4226D1037F42608D
:10665400022BC26026D18368BDE8304018472D68FC
:10666400E98B090422D492B2EA832168EC8BA4B2A8
:10667400EC82CC8B240405D5CC8BC2F3080204F441
:106684007E442243CA83CA8B92B2CA8200210D4A35
:106694001964D07682F81BC030BD23461146BDE88C
:1066A40030401847BDE8304002F008BAE98BC2F325
:1066B400080E92B201F47E4141EA0E01E983D4E767
:1066C4000416002000800E400180FFFF8145000079
:1066D4000023C0E90012C0E90233C0E90433C0E971
:1066E4000633C0E90833C0E90A33C0E90C338363D5
:1066F4008387C0E91033C0E91233704743682DE93A
:10670400F04FD3E90041814D4FF0B80A22684FF0B1
:10671400020822EA01027E492260AA6911407D4AE8
:106724000A43AA6190F810E07B4A03EB0E0603EBE0
:106734008E0E317C02EB01118968C1F800A090F83B
:1067440011C003EB0C050CF10A0C95F8241002EBB4
:1067540001118968C1F800A0817C03EB010903EBF6
:10676400810199F838B002EB0B1BDBF808B0CBF8C9
:1067740000A0D4F800A05F684AEA070AC4F800A0A1
:10678400347CDEF814E002EB04146468C4F800E01E
:1067940095F8244053F82CC002EB04146468C4F840
:1067A40000C099F8384002EB04125268C96B1160BA
:1067B4009A6C99F8441011601A6A317F5B6B11600E
:1067C40095F830201A600F220368C3F810809A6588
:1067D400C27C002A31D072B6C37CDC0708D54FF0E6
:1067E400E0214469D1F8802122408262C1F88021ED
:1067F400990708D54FF0E0218469D1F8842122401B
:10680400C262C1F884215A0708D54FF0E021C46957
:10681400D1F8882122400263C1F888211F0708D5D6
:106824004FF0E021046AD1F88C2122404263C1F880
:106834008C21DE0655D462B60368384C8268A242C5
:1068440059D0324A846092693549C2F30116C2F3C1
:106854008262344D51F826100132B1FBF2F2AA42A1
:1068640031D80022C260002403211C61072459622C
:1068740001211A641C661961C37C13B3DD0704D5B6
:10688400816A4FF0E022C2F800119C0704D5C16A66
:106894004FF0E022C2F80411590704D5016B4FF000
:1068A400E022C2F808111A0704D5416B4FF0E02228
:1068B400C2F80C11DB0604D5826B4FF0E023C3F859
:1068C4001021BDE8F08F1849A1FB0251090DB2FB5C
:1068D400F1F2A24288BF0131B1F5817F0DD3134A91
:1068E400C0E74FF0E022416AD2F890310B40836355
:1068F400C2F890319FE7C268B5E70229B1D90239DD
:106904004C08220242EA04420A43ABE700C00F40AB
:10691400CFFFFFE3100000083405002000093D000C
:1069240070040020FF083D0083DE1B43FF7F7F00CF
:1069340008B5084A08490948FFF7CAFE084A094940
:106944000948FFF7C5FE094A09490A48FFF7C0FE8E
:1069540008BD00BFDC03002000003A4004160020FC
:106964006C03002000C0394054160020FC020020B3
:1069740000403940A4160020362816D80201104BD6
:1069840003EB00109B5810B4C2685C68144205D035
:1069940061B95DF8044BC3F888207047836851B12E
:1069A400084A5DF8044B1A60704770475DF8044B61
:1069B400C3F884207047044A5DF8044B1A6070479A
:1069C4003405002038F0010038300100362829D879
:1069D400164B0201012903EB00109A5810B45368B6
:1069E400C4680ED004290CD023EA040353608368DE
:1069F400A9B1022917D003290CBF0D4A0D4A1A6008
:106A040007E0234301295360836808D040F6380225
:106A14001A60436815225DF8044B1A6070473822E7
:106A24001A60F6E77047044A1A60F2E7340500205A
:106A3400383001003800010038F00100A249A34BAE
:106A440088422DE9F047A24C5E699A69D4F80C801B
:106A54001BD9A04B984240F20281C31A9E491B0ADB
:106A6400A1FB031340F22761DB0903EB830303EB70
:106A7400830303F2E2438B4228BF0B46A3F5487716
:106A8400964BA3FB0737FF0804E0954FB8428CBF31
:106A94000E2706278D4908F01F09D1F88030B94523
:106AA40043F0C003C1F880300CD228F01F08A1F5D0
:106AB400F82148EA0708C1F80C800B68002BFCDABF
:106AC40008F01F0916F0007324D186490C69864921
:106AD400A14300F0EA8082F4805134464FF480559B
:106AE40014F0605F04D026F060561E43774B5E615D
:106AF40011F4405F07D022F4405274492A438A615A
:106B04008B6C1A07FCD446F00076704A5661936C7D
:106B14009B06FCD4754CA04200F2CE804FF0010CD1
:106B24000146634603FB011203F1010E0CF101055A
:106B3400A24218D8BEF1080F4FF0010340F08D8037
:106B4400BCF1040F00F291800A18A24200F2A48062
:106B540005FB00F1AC4603F1010E03FB01120CF13D
:106B64000105A242E6D90CF1FF318C0286EA8121AB
:106B74005F4810445F4A90427FD9DFF8A4A16C2299
:106B84005D48584DB0FBFEF0D5F800E0B0FBFCF0DA
:106B9400DFF890C10EEA0C0CD44509D042F400523F
:106BA4004FF4805CC5F800C02A602A68002AFCDA29
:106BB400464A156905F007059D4203D01361936C9D
:106BC400DD03FCD411F4E05F09D026F4E05604F4AC
:106BD400E0543E4A26435661936C9907FCD44749D6
:106BE400474A014491423CD8464BC909A3FB0131B1
:106BF400090B4B1E1B0286EA030212F4407F06D0E7
:106C040026F4407603F44073304A334353612F4AE9
:106C1400536923F000735361936C9B06FCD43A4B85
:106C24004F45A3FB00234FF0FF324FEA9343B0FBE1
:106C3400F1F1B2FBF3F3354A1060354A1160354A7D
